:100000000C9462000C948A000C948A000C948A0070
:100010000C948A000C948A000C948A000C948A0038
:100020000C948A000C948A000C948A000C948A0028
:100030000C948A000C948A000C948A000C948A0018
:100040000C9479020C948A000C948A000C948A0017
:100050000C948A000C948A000C948A000C948A00F8
:100060000C94C3020C948A000000000024002700B6
:100070002A0000000000250028002B0000000008D6
:10008000000201000003040700000000000000005F
:1000900000000000230026002900040404040404D6
:1000A0000404020202020202030303030303010227
:1000B00004081020408001020408102001020408F6
:1000C0001020AB0511241FBECFEFD8E0DEBFCDBF9F
:1000D00011E0A0E0B1E0E2E9FBE002C005900D9282
:1000E000A231B107D9F721E0A2E1B1E001C01D9230
:1000F000A33CB207E1F710E0C2E6D0E004C02197CC
:10010000FE010E94BC05C136D107C9F70E94360422
:100110000C94C7050C94000090E0FC01E458FF4FDC
:100120002491FC01E255FF4F3491FC01E656FF4F4C
:10013000E491EE2309F43CC0222339F1233091F0FD
:1001400038F42130A9F0223001F584B58F7D12C03A
:10015000273091F02830A1F02430B9F4809180004C
:100160008F7D03C0809180008F77809380000DC0C9
:1001700084B58F7784BD09C08091B0008F7703C0AC
:100180008091B0008F7D8093B000F0E0EE0FFF1FF4
:10019000EE58FF4FA591B4919FB7F894611104C038
:1001A0008C913095382302C0EC913E2B3C939FBF3D
:1001B0000895CF93DF9390E0FC01E255FF4F249127
:1001C000FC01E656FF4F8491882361F190E0880F8F
:1001D000991FFC01E859FF4FC591D491FC01EE58DD
:1001E000FF4FA591B491611109C09FB7F894888120
:1001F000209582238883EC912E230BC0623061F41A
:100200009FB7F8948881322F309583238883EC91AF
:100210002E2B2C939FBF06C08FB7F894E8812E2B0E
:1002200028838FBFDF91CF910895E091A601F091CF
:10023000A701309729F01092A3011092A20109940E
:100240000895CF93DF93AC01E091A801F091A9014B
:100250003097F1F09091A5018091A4019817C0F01A
:1002600090E0292F30E02617370754F4D901AD5E0E
:10027000BE4FEA01C20FD31F28812C939F5FF1CF9D
:100280001092A5016093A401CB01DF91CF91099455
:10029000DF91CF910895CF92DF92EF92FF920F936B
:1002A0001F93CF93DF936C017A018B01C0E0D0E004
:1002B000CE15DF0581F0D8016D918D01D601ED914C
:1002C000FC910190F081E02DC6010995892B11F078
:1002D0002196EECF7E01C701DF91CF911F910F9143
:1002E000FF90EF90DF90CF90089585ED8093BC0054
:1002F0008091BC0084FDFCCF1092A1010895409133
:100300005301262F30E0240F311D21323105DCF45A
:100310002091A1012430C9F4FC0180E090E086170F
:1003200058F4309153012191DC01AD5CBE4FA30F15
:10033000B11D2C930196F3CF80915301680F609308
:10034000530180E0089581E0089582E008950895C2
:10035000E091A5018091A401E81730F4F0E0ED5E92
:10036000FE4F808190E008958FEF9FEF0895909168
:10037000A5018091A401981750F4E92FF0E0ED5EFB
:10038000FE4F208130E09F5F9093A50102C02FEFC8
:100390003FEFC90108958091A40190E02091A5014B
:1003A000821B91090895CF93DF93CB01EA01642F5B
:1003B0000E947F01CE01DF91CF910895CF93DF930B
:1003C0001F92CDB7DEB7698361E0CE0101960E942E
:1003D0007F0181E090E00F90DF91CF910895089523
:1003E00080E090E0089580911201813019F46091CD
:1003F000B80104C0823031F46091B6018AEA91E01C
:100400000C94DE0108958091A40190E02091A50153
:10041000821B9109181619063CF48AEA91E00E94A1
:10042000B70180931201EFCF08958EBD00000DB487
:1004300007FEFDCF8EB508951F93CF93DF93182F3E
:10044000D62FC42F8FEE0E941502812F0E94150215
:100450008D2F0E9415028C2FDF91CF911F910C944C
:10046000150280E00E94150280E00E94150280E0E3
:100470000E94150280E00C9415020F931F9390E0E8
:10048000FC01E255FF4F6491FC01E656FF4FE491F9
:10049000F0E0EE0FFF1FE057FF4F8591949104EDC0
:1004A00010E320E030E0462F0E94F1036115710552
:1004B00081059105B1F0DC01CB010196A11DB11DB3
:1004C00024E0880F991FAA1FBB1F2A95D1F7BC01F2
:1004D000CD0133E096958795779567953A95D1F755
:1004E00003C060E070E0CB011F910F9108950E945E
:1004F000C2051F920F920FB60F9211242F933F93B4
:100500008F939F93AF93BF938091BF019091C00150
:10051000A091C101B091C2013091BE0126E0230F2C
:100520002D3720F40296A11DB11D05C029E8230F27
:100530000396A11DB11D2093BE018093BF0190932E
:10054000C001A093C101B093C2018091BA01909102
:10055000BB01A091BC01B091BD010196A11DB11DCF
:100560008093BA019093BB01A093BC01B093BD01ED
:10057000BF91AF919F918F913F912F910F900FBE9F
:100580000F901F9018951F920F920FB60F92112483
:100590002F933F934F935F936F937F938F939F938B
:1005A000AF93BF93EF93FF938091B900887F80361C
:1005B00009F49CC068F5883209F45BC090F480317E
:1005C00009F454C038F4882309F4F6C0883009F4DB
:1005D0004DC0F6C0883109F44CC0803209F45DC0CA
:1005E000EFC0803409F468C048F4803309F455C082
:1005F000883309F0E5C080937601D8C0803509F4CE
:100600004FC0883509F45DC0883409F0D9C0D6C020
:10061000883909F4C7C0A8F4883709F467C038F4EA
:10062000883609F463C0803709F460C0C9C08838CF
:1006300009F4B8C0803909F45FC0803809F0C0C03F
:100640005BC0803B09F486C038F4803A09F466C088
:10065000883A09F47FC0B4C0803C09F4A7C0883C44
:1006600009F4A4C0883B09F48AC0AAC0809199010A
:1006700010C09091980180919701981770F5E091C2
:10068000980181E08E0F80939801F0E0E958FE4FC9
:1006900080818093BB0085EC86C0809376018EC0FC
:1006A000E091980181E08E0F809398018091BB00CA
:1006B000F0E0E958FE4F8083909198018091970176
:1006C0006EC0E091980181E08E0F80939801809137
:1006D000BB00F0E0E958FE4F80838091A0018111BA
:1006E0006DC081E080939F0184EA61C083E08093C4
:1006F000A10110927501CFCF80917501803208F071
:1007000051C0E091750181E08E0F80937501809159
:10071000BB00F0E0EB5AFE4F8083BDCF85EC8093A9
:10072000BC001092A10180917501803230F4E091FB
:100730007501F0E0EB5AFE4F10826091750170E098
:10074000E0919B01F0919C0185E591E00995109263
:10075000750136C084E08093A1011092540110927B
:100760005301E0919D01F0919E0109958091530103
:10077000811105C081E08093530110923301E09113
:10078000540181E08E0F80935401F0E0ED5CFE4F48
:1007900080818093BB009091540180915301981700
:1007A00008F479CF85E88093BC000AC085EC80937B
:1007B000BC001092A10104C0109276010E94750144
:1007C000FF91EF91BF91AF919F918F917F916F9129
:1007D0005F914F913F912F910F900FBE0F901F90FF
:1007E0001895CF92DF92EF92FF920F931F93E82F0D
:1007F000F92F05C0015011092109310961F19081DA
:1008000096239417B9F305C0015011092109310944
:1008100011F1908196239413F7CFC12CD12CE12CA8
:10082000F12C0AC08FEFC81AD80AE80AF80A0C158A
:100830001D052E053F0579F080818623841791F3ED
:100840006C2D7D2D8E2D9F2D1F910F91FF90EF9080
:10085000DF90CF90089560E070E080E090E01F911D
:100860000F91FF90EF90DF90CF900895789484B52A
:10087000826084BD84B5816084BD85B5826085BD9C
:1008800085B5816085BD80916E00816080936E002A
:10089000109281008091810082608093810080911C
:1008A00081008160809381008091800081608093CD
:1008B00080008091B10084608093B1008091B0008D
:1008C00081608093B00080917A00846080937A0088
:1008D00080917A00826080937A0080917A008E7F86
:1008E00080937A0080917A00806880937A001092D9
:1008F000C10061E082E00E94D90061E083E00E94D3
:10090000D90061E084E00E94D90060E08EE00E949E
:10091000D90060E08FE00E94D90060E081E10E9490
:10092000D900CFB7F89480919A01811127C0E4EAE9
:10093000F0E08491E8EBF0E09491E82FF0E0EE0F26
:10094000FF1FE859FF4FA591B491EC91E92321F4E1
:1009500061E08AE00E948C0061E08AE00E94D90098
:100960008CB580618CBD8CB580648CBD61E08DE000
:100970000E94D90061E08BE00E94D90080919A0129
:100980008F5F80939A01CFBF1092A5011092A401AE
:100990001092A3011092A2011092A10181E0809314
:1009A000A00110929F0161E082E10E948C0061E051
:1009B00083E10E948C008091B9008E7F8093B90002
:1009C0008091B9008D7F8093B90080E28093B80058
:1009D00085E48093BC0085E191E090939E01809333
:1009E0009D0181E291E090939C0180939B0180E1C5
:1009F0008093BA0083EF91E09093A7018093A601C2
:100A000083E092E09093A9018093A801C0E0D0E038
:100A100081E10E943D026B017C018EE00E943D025B
:100A20007093B9016093B8018FE00E943D0270930A
:100A3000B7016093B60189ECC816D1040CF445C027
:100A400061E082E00E948C0061E083E00E948C0003
:100A500060E084E00E948C000E9431024AE050E095
:100A600060E070E080E590E00E941C0248E250E007
:100A700060E070E080E590E00E941C024AE550E0F2
:100A800060E070E080E590E00E941C0242E850E0E7
:100A900060E070E080E590E00E941C024AEA50E0CD
:100AA00060E070E080E590E00E941C0242ED50E0C2
:100AB00060E070E080E590E00E941C024FEF50E0A3
:100AC00060E070E080E590E03CC060E082E00E9481
:100AD0008C0060E083E00E948C0061E084E00E9472
:100AE0008C000E94310240E050E06FEF70E080E047
:100AF00090E00E941C0240E050E06FEF70E080E068
:100B000090E00E941C0240E050E06FEF70E080E057
:100B100090E00E941C0240E050E06FEF70E080E047
:100B200090E00E941C0240E050E06FEF70E080E037
:100B300090E00E941C0240E050E06FEF70E080E027
:100B400090E00E941C020E943102209709F460CFBD
:100B50000E9400005DCFEAEAF1E01382128288EE83
:100B600093E0A0E0B0E084839583A683B78384E01C
:100B700091E0918380830895EE0FFF1F0590F4911B
:100B8000E02D099481E090E0F8940C94C705F89466
:020B9000FFCF95
:100B920000000000DE01D301F001A701CB01B70183
:020BA200A801A8
:00000001FF
