:100000000C9462000C948A000C948A000C948A0070
:100010000C948A000C948A000C948A000C948A0038
:100020000C948A000C948A000C948A000C948A0028
:100030000C948A000C948A000C948A000C948A0018
:100040000C9479020C948A000C948A000C948A0017
:100050000C948A000C948A000C948A000C948A00F8
:100060000C94C3020C948A000000000024002700B6
:100070002A0000000000250028002B0000000008D6
:10008000000201000003040700000000000000005F
:1000900000000000230026002900040404040404D6
:1000A0000404020202020202030303030303010227
:1000B00004081020408001020408102001020408F6
:1000C0001020AB0511241FBECFEFD8E0DEBFCDBF9F
:1000D00011E0A0E0B1E0E2E9FBE002C005900D9282
:1000E000A231B107D9F721E0A2E1B1E001C01D9230
:1000F000A33CB207E1F710E0C2E6D0E004C02197CC
:10010000FE010E94BC05C136D107C9F70E94360422
:100110000C94C7050C94000090E0FC01E458FF4FDC
:100120002491FC01E255FF4F3491FC01E656FF4F4C
:10013000E491EE2309F43CC0222339F1233091F0FD
:1001400038F42130A9F0223001F584B58F7D12C03A
:10015000273091F02830A1F02430B9F4809180004C
:100160008F7D03C0809180008F77809380000DC0C9
:1001700084B58F7784BD09C08091B0008F7703C0AC
:100180008091B0008F7D8093B000F0E0EE0FFF1FF4
:10019000EE58FF4FA591B4919FB7F894611104C038
:1001A0008C913095382302C0EC913E2B3C939FBF3D
:1001B0000895CF93DF9390E0FC01E255FF4F249127
:1001C000FC01E656FF4F8491882361F190E0880F8F
:1001D000991FFC01E859FF4FC591D491FC01EE58DD
:1001E000FF4FA591B491611109C09FB7F894888120
:1001F000209582238883EC912E230BC0623061F41A
:100200009FB7F8948881322F309583238883EC91AF
:100210002E2B2C939FBF06C08FB7F894E8812E2B0E
:1002200028838FBFDF91CF910895E091A601F091CF
:10023000A701309729F01092A3011092A20109940E
:100240000895CF93DF93AC01E091A801F091A9014B
:100250003097F1F09091A5018091A4019817C0F01A
:1002600090E0292F30E02617370754F4D901AD5E0E
:10027000BE4FEA01C20FD31F28812C939F5FF1CF9D
:100280001092A5016093A401CB01DF91CF91099455
:10029000DF91CF910895CF92DF92EF92FF920F936B
:1002A0001F93CF93DF936C017A018B01C0E0D0E004
:1002B000CE15DF0581F0D8016D918D01D601ED914C
:1002C000FC910190F081E02DC6010995892B11F078
:1002D0002196EECF7E01C701DF91CF911F910F9143
:1002E000FF90EF90DF90CF90089585ED8093BC0054
:1002F0008091BC0084FDFCCF1092A1010895409133
:100300005301262F30E0240F311D21323105DCF45A
:100310002091A1012430C9F4FC0180E090E086170F
:1003200058F4309153012191DC01AD5CBE4FA30F15
:10033000B11D2C930196F3CF80915301680F609308
:10034000530180E0089581E0089582E008950895C2
:10035000E091A5018091A401E81730F4F0E0ED5E92
:10036000FE4F808190E008958FEF9FEF0895909168
:10037000A5018091A401981750F4E92FF0E0ED5EFB
:10038000FE4F208130E09F5F9093A50102C02FEFC8
:100390003FEFC90108958091A40190E02091A5014B
:1003A000821B91090895CF93DF93CB01EA01642F5B
:1003B0000E947F01CE01DF91CF910895CF93DF930B
:1003C0001F92CDB7DEB7698361E0CE0101960E942E
:1003D0007F0181E090E00F90DF91CF910895089523
:1003E00080E090E0089580911201813019F46091CD
:1003F000B80104C0823031F46091B6018AEA91E01C
:100400000C94DE0108958091A40190E02091A50153
:10041000821B9109181619063CF48AEA91E00E94A1
:10042000B70180931201EFCF08958EBD00000DB487
:1004300007FEFDCF8EB508951F93CF93DF93182F3E
:10044000D62FC42F8FEE0E941502812F0E94150215
:100450008D2F0E9415028C2FDF91CF911F910C944C
:10046000150280E00E94150280E00E94150280E0E3
:100470000E94150280E00C9415020F931F9390E0E8
:10048000FC01E255FF4F6491FC01E656FF4FE491F9
:10049000F0E0EE0FFF1FE057FF4F8591949104EDC0
:1004A00010E320E030E0462F0E94F1036115710552
:1004B00081059105B1F0DC01CB010196A11DB11DB3
:1004C00024E0880F991FAA1FBB1F2A95D1F7BC01F2
:1004D000CD0133E096958795779567953A95D1F755
:1004E00003C060E070E0CB011F910F9108950E945E
:1004F000C2051F920F920FB60F9211242F933F93B4
:100500008F939F93AF93BF938091BF019091C00150
:10051000A091C101B091C2013091BE0126E0230F2C
:100520002D3720F40296A11DB11D05C029E8230F27
:100530000396A11DB11D2093BE018093BF0190932E
:10054000C001A093C101B093C2018091BA01909102
:10055000BB01A091BC01B091BD010196A11DB11DCF
:100560008093BA019093BB01A093BC01B093BD01ED
:10057000BF91AF919F918F913F912F910F900FBE9F
:100580000F901F9018951F920F920FB60F92112483
:100590002F933F934F935F936F937F938F939F938B
:1005A000AF93BF93EF93FF938091B900887F80361C
:1005B00009F49CC068F5883209F45BC090F480317E
:1005C00009F454C038F4882309F4F6C0883009F4DB
:1005D0004DC0F6C0883109F44CC0803209F45DC0CA
:1005E000EFC0803409F468C048F4803309F455C082
:1005F000883309F0E5C080937601D8C0803509F4CE
:100600004FC0883509F45DC0883409F0D9C0D6C020
:10061000883909F4C7C0A8F4883709F467C038F4EA
:10062000883609F463C0803709F460C0C9C08838CF
:1006300009F4B8C0803909F45FC0803809F0C0C03F
:100640005BC0803B09F486C038F4803A09F466C088
:10065000883A09F47FC0B4C0803C09F4A7C0883C44
:1006600009F4A4C0883B09F48AC0AAC0809199010A
:1006700010C09091980180919701981770F5E091C2
:10068000980181E08E0F80939801F0E0E958FE4FC9
:1006900080818093BB0085EC86C0809376018EC0FC
:1006A000E091980181E08E0F809398018091BB00CA
:1006B000F0E0E958FE4F8083909198018091970176
:1006C0006EC0E091980181E08E0F80939801809137
:1006D000BB00F0E0E958FE4F80838091A0018111BA
:1006E0006DC081E080939F0184EA61C083E08093C4
:1006F000A10110927501CFCF80917501803208F071
:1007000051C0E091750181E08E0F80937501809159
:10071000BB00F0E0EB5AFE4F8083BDCF85EC8093A9
:10072000BC001092A10180917501803230F4E091FB
:100730007501F0E0EB5AFE4F10826091750170E098
:10074000E0919B01F0919C0185E591E00995109263
:10075000750136C084E08093A1011092540110927B
:100760005301E0919D01F0919E0109958091530103
:10077000811105C081E08093530110923301E09113
:10078000540181E08E0F80935401F0E0ED5CFE4F48
:1007900080818093BB009091540180915301981700
:1007A00008F479CF85E88093BC000AC085EC80937B
:1007B000BC001092A10104C0109276010E94750144
:1007C000FF91EF91BF91AF919F918F917F916F9129
:1007D0005F914F913F912F910F900FBE0F901F90FF
:1007E0001895CF92DF92EF92FF920F931F93E82F0D
:1007F000F92F05C0015011092109310961F19081DA
:1008000096239417B9F305C0015011092109310944
:1008100011F1908196239413F7CFC12CD12CE12CA8
:10082000F12C0AC08FEFC81AD80AE80AF80A0C158A
:100830001D052E053F0579F080818623841791F3ED
:100840006C2D7D2D8E2D9F2D1F910F91FF90EF9080
:10085000DF90CF90089560E070E080E090E01F911D
:100860000F91FF90EF90DF90CF900895789484B52A
:10087000826084BD84B5816084BD85B5826085BD9C
:1008800085B5816085BD80916E00816080936E002A
:10089000109281008091810082608093810080911C
:1008A00081008160809381008091800081608093CD
:1008B00080008091B10084608093B1008091B0008D
:1008C00081608093B00080917A00846080937A0088
:1008D00080917A00826080937A0080917A008E7F86
:1008E00080937A0080917A00806880937A001092D9
:1008F000C10061E082E00E94D90061E083E00E94D3
:10090000D90061E084E00E94D90060E08EE00E949E
:10091000D90060E08FE00E94D90060E081E10E9490
:10092000D900CFB7F89480919A01811127C0E4EAE9
:10093000F0E08491E8EBF0E09491E82FF0E0EE0F26
:10094000FF1FE859FF4FA591B491EC91E92321F4E1
:1009500061E08AE00E948C0061E08AE00E94D90098
:100960008CB580618CBD8CB580648CBD61E08DE000
:100970000E94D90061E08BE00E94D90080919A0129
:100980008F5F80939A01CFBF1092A5011092A401AE
:100990001092A3011092A2011092A10181E0809314
:1009A000A00110929F0161E082E10E948C0061E051
:1009B00083E10E948C008091B9008E7F8093B90002
:1009C0008091B9008D7F8093B90080E28093B80058
:1009D00085E48093BC0085E191E090939E01809333
:1009E0009D0181E291E090939C0180939B0180E1C5
:1009F0008093BA0083EF91E09093A7018093A601C2
:100A000083E092E09093A9018093A801C0E0D0E038
:100A100081E10E943D026B017C018EE00E943D025B
:100A20007093B9016093B8018FE00E943D0270930A
:100A3000B7016093B60189ECC816D1040CF445C027
:100A400061E082E00E948C0061E083E00E948C0003
:100A500060E084E00E948C000E9431024AE050E095
:100A600060E070E080E590E00E941C0248E250E007
:100A700060E070E080E590E00E941C024AE550E0F2
:100A800060E070E080E590E00E941C0242E850E0E7
:100A900060E070E080E590E00E941C024AEA50E0CD
:100AA00060E070E080E590E00E941C0242ED50E0C2
:100AB00060E070E080E590E00E941C024FEF50E0A3
:100AC00060E070E080E590E03CC060E082E00E9481
:100AD0008C0060E083E00E948C0061E084E00E9472
:100AE0008C000E94310240E050E06FEF70E080E047
:100AF00090E00E941C0240E050E06FEF70E080E068
:100B000090E00E941C0240E050E06FEF70E080E057
:100B100090E00E941C0240E050E06FEF70E080E047
:100B200090E00E941C0240E050E06FEF70E080E037
:100B300090E00E941C0240E050E06FEF70E080E027
:100B400090E00E941C020E943102209709F460CFBD
:100B50000E9400005DCFEAEAF1E01382128288EE83
:100B600093E0A0E0B0E084839583A683B78384E01C
:100B700091E0918380830895EE0FFF1F0590F4911B
:100B8000E02D099481E090E0F8940C94C705F89466
:020B9000FFCF95
:100B920000000000DE01D301F001A701CB01B70183
:020BA200A801A8
:107800000C94343C0C94513C0C94513C0C94513CE1
:107810000C94513C0C94513C0C94513C0C94513CB4
:107820000C94513C0C94513C0C94513C0C94513CA4
:107830000C94513C0C94513C0C94513C0C94513C94
:107840000C94513C0C94513C0C94513C0C94513C84
:107850000C94513C0C94513C0C94513C0C94513C74
:107860000C94513C0C94513C11241FBECFEFD8E036
:10787000DEBFCDBF11E0A0E0B1E0EAE8FFE702C063
:1078800005900D92A230B107D9F712E0A2E0B1E065
:1078900001C01D92AD30B107E1F70E942D3D0C945F
:1078A000C33F0C94003C982F95959595959595958B
:1078B000905D8F708A307CF0282F295A8091C0000B
:1078C00085FFFCCF9093C6008091C00085FFFCCF60
:1078D0002093C6000895282F205DF0CF982F809127
:1078E000C00085FFFCCF9093C6000895EF92FF92F1
:1078F0000F931F93EE24FF2487018091C00087FD22
:1079000017C00894E11CF11C011D111D81E2E8164D
:1079100081EAF80687E0080780E0180770F3E09135
:107920000401F091050109958091C00087FFE9CF1E
:107930008091C6001F910F91FF90EF9008950E94D3
:10794000763C982F8091C00085FFFCCF9093C600B5
:1079500091362CF490330CF09053892F089597555D
:10796000892F08951F930E949F3C182F0E949F3CCF
:107970001295107F810F1F9108951F93182F882350
:1079800021F00E94763C1150E1F71F9108951F935A
:10799000182F0E94763C803249F0809103018F5F5E
:1079A000809303018530C1F01F9108958091C0003C
:1079B00085FFFCCF84E18093C6008091C00085FFE5
:1079C000FCCF1093C6008091C00085FFFCCF80E102
:1079D0008093C6001F910895E0910401F091050184
:1079E00009951F9108950E94763C803241F0809164
:1079F00003018F5F80930301853081F008958091AA
:107A0000C00085FFFCCF84E18093C6008091C00058
:107A100085FFFCCF80E18093C6000895E0910401CA
:107A2000F09105010995089548EC50E08823A1F0F4
:107A30002D9A28EE33E0FA013197F1F721503040CA
:107A4000D1F72D9828EE33E0FA013197F1F7215064
:107A50003040D1F7815061F708953F924F925F9285
:107A60006F927F928F929F92AF92BF92CF92DF924E
:107A7000EF92FF920F931F93CF93DF93000082E06A
:107A80008093C00080E18093C4001092C50088E11B
:107A90008093C10086E08093C2005098589A259A3E
:107AA00081E00E94143D24E1F22E9EE1E92E85E959
:107AB000D82E0FE0C02E10E1B12EAA24A394B1E479
:107AC0009B2EA6E58A2EF2E57F2EE0E26E2E79E46B
:107AD000572E63E5462E50E5352E0E94763C8033C6
:107AE000B1F18133B9F1803409F46FC0813409F404
:107AF00076C0823409F485C0853409F488C08035A5
:107B000031F1823521F1813511F1853509F485C0D6
:107B1000863509F48DC0843609F496C0843709F49B
:107B200003C1853709F472C1863709F466C08091B4
:107B300003018F5F80930301853079F6E0910401A2
:107B4000F091050109950E94763C803351F60E9420
:107B5000F33CC3CF0E94763C803249F78091C0004D
:107B600085FFFCCFF092C6008091C00085FFFCCF5E
:107B70009092C6008091C00085FFFCCF8092C60025
:107B80008091C00085FFFCCF7092C6008091C0003C
:107B900085FFFCCF6092C6008091C00085FFFCCFBE
:107BA0005092C6008091C00085FFFCCF4092C60075
:107BB0008091C00085FFFCCF3092C6008091C0004C
:107BC00085FFFCCFB092C60088CF0E94763C8638F5
:107BD00008F4BDCF0E94763C0E94F33C7ECF0E9409
:107BE000763C803809F49CC0813809F40BC1823896
:107BF00009F430C1883909F48FC080E00E94C73C85
:107C00006CCF84E10E94BD3C0E94F33C66CF85E0CE
:107C10000E94BD3C0E94F33C60CF0E94763C809362
:107C200006010E94763C809307010E94F33C55CFE9
:107C30000E94763C803309F411C183E00E94BD3C70
:107C400080E00E94C73C49CF0E94763C80930902A5
:107C50000E94763C8093080280910C028E7F809374
:107C60000C020E94763C853409F409C18091080217
:107C700090910902892B89F000E010E00E94763C87
:107C8000F801E85FFE4F80830F5F1F4F809108026D
:107C9000909109020817190788F30E94763C8032F8
:107CA00009F045CF80910C0280FFF5C0609106017C
:107CB00070910701660F771F7093070160930601AB
:107CC000A0910802B09109021097C9F0E8E0F1E034
:107CD0009B01AD014E0F5F1FF999FECF32BD21BD53
:107CE000819180BDFA9AF99A2F5F3F4FE417F5070B
:107CF00099F76A0F7B1F70930701609306018091CB
:107D0000C00085FFFCCFF092C6008091C00085FFC7
:107D1000FCCFB092C600E1CE83E00E94C73CDDCE2E
:107D200082E00E94C73CD9CE0E94763C8093090233
:107D30000E94763C80930802809106019091070191
:107D4000880F991F90930701809306010E94763C4B
:107D5000853409F49AC080910C028E7F80930C02C6
:107D60000E94763C803209F0B8CE8091C00085FF39
:107D7000FCCFF092C600A0910802B09109021097C2
:107D8000C1F180910C02082F0170182F1695117007
:107D9000E0910601F0910701AF014F5F5F4FBA011B
:107DA00020E030E00023B1F4112339F49491809164
:107DB000C00085FFFCCF9093C6002F5F3F4FCB01E3
:107DC0000196FA012A173B0780F4BC014F5F5F4F11
:107DD000002351F3F999FECFF2BDE1BDF89A90B5B9
:107DE0008091C00085FFFCCFE6CF709307016093C0
:107DF00006018091C00085FDE5CE8091C00085FF21
:107E0000F8CFE0CE81E00E94C73C67CE0E94763C6E
:107E1000803209F08CCE8091C00085FFFCCFF092BB
:107E2000C6008091C00085FFFCCFE092C600809123
:107E3000C00085FFFCCFD092C6008091C00085FFB6
:107E4000FCCFC092C6008091C00085FFFCCFB092ED
:107E5000C60043CE80E10E94C73C3FCE0E94763CE4
:107E60000E94763C182F0E94763C112309F483C0AF
:107E7000113009F484C08FE00E94C73C2ECE80915F
:107E80000C02816080930C02F1CE80910C02816023
:107E900080930C0265CF809107018823880F880B9F
:107EA0008A2180930B028091060190910701880F2F
:107EB000991F90930701809306018091080280FF2B
:107EC00009C08091080290910902019690930902DD
:107ED00080930802F894F999FECF1127E0910601EA
:107EE000F0910701C8E0D1E0809108029091090269
:107EF000103091F40091570001700130D9F303E084
:107F000000935700E8950091570001700130D9F3B4
:107F100001E100935700E8950990199000915700EE
:107F200001700130D9F301E000935700E8951395F3
:107F3000103498F011270091570001700130D9F3E7
:107F400005E000935700E89500915700017001305B
:107F5000D9F301E100935700E8953296029709F0B2
:107F6000C7CF103011F00296E5CF11248091C000E8
:107F700085FFC5CEC8CE8EE10E94C73CAECD85E957
:0A7F80000E94C73CAACDF894FFCF81
:027F8A00800075
:040000030000780081
:00000001FF
